{
  "abi": [
    {
      "inputs": [],
      "stateMutability": "nonpayable",
      "type": "constructor"
    },
    {
      "inputs": [
        {
          "internalType": "enum AuthType",
          "name": "authType",
          "type": "uint8"
        }
      ],
      "name": "AuthTypeNotFoundInVerifiedResult",
      "type": "error"
    },
    {
      "inputs": [
        {
          "internalType": "uint256",
          "name": "vaultId",
          "type": "uint256"
        }
      ],
      "name": "isAlreadyClaimed",
      "type": "error"
    },
    {
      "inputs": [
        {
          "internalType": "uint256",
          "name": "vaultId",
          "type": "uint256"
        }
      ],
      "name": "notInPendingList",
      "type": "error"
    },
    {
      "inputs": [],
      "name": "zeroAddress",
      "type": "error"
    },
    {
      "inputs": [],
      "name": "zeroVaultId",
      "type": "error"
    },
    {
      "inputs": [],
      "name": "ADDRESSES_PROVIDER_V2",
      "outputs": [
        {
          "internalType": "contract IAddressesProvider",
          "name": "",
          "type": "address"
        }
      ],
      "stateMutability": "view",
      "type": "function"
    },
    {
      "inputs": [],
      "name": "APP_ID",
      "outputs": [
        {
          "internalType": "bytes16",
          "name": "",
          "type": "bytes16"
        }
      ],
      "stateMutability": "view",
      "type": "function"
    },
    {
      "inputs": [],
      "name": "DEPOSIT_AMOUNT",
      "outputs": [
        {
          "internalType": "uint256",
          "name": "",
          "type": "uint256"
        }
      ],
      "stateMutability": "view",
      "type": "function"
    },
    {
      "inputs": [],
      "name": "IS_IMPERSONATION_MODE",
      "outputs": [
        {
          "internalType": "bool",
          "name": "",
          "type": "bool"
        }
      ],
      "stateMutability": "view",
      "type": "function"
    },
    {
      "inputs": [],
      "name": "N_BLOCKS_DELAY",
      "outputs": [
        {
          "internalType": "uint256",
          "name": "",
          "type": "uint256"
        }
      ],
      "stateMutability": "view",
      "type": "function"
    },
    {
      "inputs": [],
      "name": "SISMO_CONNECT_LIB_VERSION",
      "outputs": [
        {
          "internalType": "uint256",
          "name": "",
          "type": "uint256"
        }
      ],
      "stateMutability": "view",
      "type": "function"
    },
    {
      "inputs": [],
      "name": "TOKEN_ADDRESS",
      "outputs": [
        {
          "internalType": "address",
          "name": "",
          "type": "address"
        }
      ],
      "stateMutability": "view",
      "type": "function"
    },
    {
      "inputs": [],
      "name": "ZERO_ADDRESS",
      "outputs": [
        {
          "internalType": "address",
          "name": "",
          "type": "address"
        }
      ],
      "stateMutability": "view",
      "type": "function"
    },
    {
      "inputs": [],
      "name": "config",
      "outputs": [
        {
          "components": [
            {
              "internalType": "bytes16",
              "name": "appId",
              "type": "bytes16"
            },
            {
              "components": [
                {
                  "internalType": "bool",
                  "name": "isImpersonationMode",
                  "type": "bool"
                }
              ],
              "internalType": "struct VaultConfig",
              "name": "vault",
              "type": "tuple"
            }
          ],
          "internalType": "struct SismoConnectConfig",
          "name": "",
          "type": "tuple"
        }
      ],
      "stateMutability": "view",
      "type": "function"
    },
    {
      "inputs": [
        {
          "internalType": "uint256",
          "name": "",
          "type": "uint256"
        }
      ],
      "name": "isClaimed",
      "outputs": [
        {
          "internalType": "bool",
          "name": "",
          "type": "bool"
        }
      ],
      "stateMutability": "view",
      "type": "function"
    },
    {
      "inputs": [],
      "name": "nullRedeemInformation",
      "outputs": [
        {
          "internalType": "bytes32",
          "name": "",
          "type": "bytes32"
        }
      ],
      "stateMutability": "view",
      "type": "function"
    },
    {
      "inputs": [
        {
          "internalType": "bytes",
          "name": "response",
          "type": "bytes"
        },
        {
          "internalType": "uint256",
          "name": "redeemGasFee",
          "type": "uint256"
        },
        {
          "internalType": "address",
          "name": "outputAddress",
          "type": "address"
        }
      ],
      "name": "redeem",
      "outputs": [
        {
          "internalType": "bool",
          "name": "",
          "type": "bool"
        }
      ],
      "stateMutability": "nonpayable",
      "type": "function"
    },
    {
      "inputs": [
        {
          "internalType": "uint256",
          "name": "",
          "type": "uint256"
        }
      ],
      "name": "vaultIdToRedeemInformation",
      "outputs": [
        {
          "internalType": "uint256",
          "name": "vaultId",
          "type": "uint256"
        },
        {
          "internalType": "address",
          "name": "outputAddress",
          "type": "address"
        },
        {
          "internalType": "uint256",
          "name": "releaseTimestamp",
          "type": "uint256"
        },
        {
          "internalType": "uint256",
          "name": "gasFee",
          "type": "uint256"
        }
      ],
      "stateMutability": "view",
      "type": "function"
    },
    {
      "inputs": [
        {
          "internalType": "uint256",
          "name": "withdrawGasFee",
          "type": "uint256"
        },
        {
          "internalType": "uint256",
          "name": "vaultId",
          "type": "uint256"
        }
      ],
      "name": "withdraw",
      "outputs": [
        {
          "internalType": "bool",
          "name": "",
          "type": "bool"
        }
      ],
      "stateMutability": "nonpayable",
      "type": "function"
    }
  ],
  "bytecode": {
    "object": "0x610160604052600080546001600160881b031916600160801b1790553480156200002857600080fd5b506000546200004790608081901b90600160801b900460ff166200040f565b80516001600160801b0319166101205260208082015151151561014052604080518082018252601981527f7369736d6f436f6e6e65637456657269666965722d76312e3200000000000000928101929092525163349f642f60e11b8152733cd5334eb64ebbd4003b72022cc25465f1bfcee69163693ec85e91620000cf919060040162000471565b602060405180830381865afa158015620000ed573d6000803e3d6000fd5b505050506040513d601f19601f82011682018060405250810190620001139190620004c1565b6001600160a01b0316608052604080518082018252601781527f61757468526571756573744275696c6465722d76312e310000000000000000006020820152905163349f642f60e11b8152733cd5334eb64ebbd4003b72022cc25465f1bfcee69163693ec85e9162000189919060040162000471565b602060405180830381865afa158015620001a7573d6000803e3d6000fd5b505050506040513d601f19601f82011682018060405250810190620001cd9190620004c1565b6001600160a01b031660a052604080518082018252601881527f636c61696d526571756573744275696c6465722d76312e3100000000000000006020820152905163349f642f60e11b8152733cd5334eb64ebbd4003b72022cc25465f1bfcee69163693ec85e9162000243919060040162000471565b602060405180830381865afa15801562000261573d6000803e3d6000fd5b505050506040513d601f19601f82011682018060405250810190620002879190620004c1565b6001600160a01b031660c052604080518082018252601581527f7369676e61747572654275696c6465722d76312e3100000000000000000000006020820152905163349f642f60e11b8152733cd5334eb64ebbd4003b72022cc25465f1bfcee69163693ec85e91620002fd919060040162000471565b602060405180830381865afa1580156200031b573d6000803e3d6000fd5b505050506040513d601f19601f82011682018060405250810190620003419190620004c1565b6001600160a01b031660e052604080518082018252601381527f726571756573744275696c6465722d76312e31000000000000000000000000006020820152905163349f642f60e11b8152733cd5334eb64ebbd4003b72022cc25465f1bfcee69163693ec85e91620003b7919060040162000471565b602060405180830381865afa158015620003d5573d6000803e3d6000fd5b505050506040513d601f19601f82011682018060405250810190620003fb9190620004c1565b6001600160a01b03166101005250620004f3565b62000436604080518082018252600080825282516020818101909452908152909182015290565b506040805180820182526001600160801b03199390931683528051602080820183526000909152815180820190925291151581529082015290565b600060208083528351808285015260005b81811015620004a05785810183015185820160400152820162000482565b506000604082860101526040601f19601f8301168501019250505092915050565b600060208284031215620004d457600080fd5b81516001600160a01b0381168114620004ec57600080fd5b9392505050565b60805160a05160c05160e051610100516101205161014051611e70620005596000396000818161027401526104e101526000818161029b01526104c001526000610a21015260006107ce0152600050506000610725015260006108a90152611e706000f3fe608060405234801561001057600080fd5b50600436106100ea5760003560e01c806379502c551161008c578063c187bbc111610066578063c187bbc114610296578063c8841c80146102d6578063c9512d99146102e9578063ec6925a7146102f157600080fd5b806379502c55146102375780639e34070f1461024c578063a183dc271461026f57600080fd5b806346916301116100c8578063469163011461014d5780634e16601614610168578063523c5d2c146101d0578063538ba4f9146100ef57600080fd5b80630bdf5300146100ef5780632be6475414610114578063441a3e701461012a575b600080fd5b6100f7600081565b6040516001600160a01b0390911681526020015b60405180910390f35b61011c600181565b60405190815260200161010b565b61013d610138366004610af9565b610300565b604051901515815260200161010b565b6100f7733cd5334eb64ebbd4003b72022cc25465f1bfcee681565b6101a8610176366004610b1b565b6002602081905260009182526040909120805460018201549282015460039092015490926001600160a01b0316919084565b604080519485526001600160a01b03909316602085015291830152606082015260800161010b565b61011c604080516080808201835260008083526020808401828152848601838152606095860184815287518085019590955291516001600160a01b03168488015251948301949094529251818301528351808203909201825260a001909252815191012081565b61023f610495565b60405161010b9190610b34565b61013d61025a366004610b1b565b60016020526000908152604090205460ff1681565b61013d7f000000000000000000000000000000000000000000000000000000000000000081565b6102bd7f000000000000000000000000000000000000000000000000000000000000000081565b6040516001600160801b0319909116815260200161010b565b61013d6102e4366004610c53565b61050a565b61011c600281565b61011c678ac7230489e8000081565b6000818152600260208181526040808420815160808082018452868252818501878152828501888152606093840189815286518089018b905292516001600160a01b03908116848901529151948301949094529251818301528451808203909201825260a081019094528051940193909320815460c0840152600182015490931660e08301529283015461010082015260038301546101208201526101400160405160208183030381529060405280519060200120036103db5760405163a1a7850f60e01b8152600481018490526024015b60405180910390fd5b6000838152600260208190526040808320838155600180820180546001600160a01b031916905592810184905560030183905590830154905163a9059cbb60e01b81526001600160a01b039091166004820152678ac7230489e80000602482015263a9059cbb906044016020604051808303816000875af1158015610464573d6000803e3d6000fd5b505050506040513d601f19601f820116820180604052508101906104889190610d0d565b5060009150505b92915050565b6104bb604080518082018252600080825282516020818101909452908152909182015290565b6105057f00000000000000000000000000000000000000000000000000000000000000007f0000000000000000000000000000000000000000000000000000000000000000610678565b905090565b60006001600160a01b03821661053357604051630930907b60e01b815260040160405180910390fd5b600061056b8561054360006106e6565b6040805133602082015261056691016040516020818303038152906040526107a7565b610850565b90506000610579828261094f565b90508060000361059c576040516334689fd560e11b815260040160405180910390fd5b60008181526001602052604090205460ff16156105cf57604051635a2d0b9d60e11b8152600481018290526024016103d2565b600081815260016020818152604092839020805460ff19168317905582516080810184528481526001600160a01b03881691810191909152918201906106159042610d3e565b81526020908101969096526000918252600280875260409283902082518155968201516001880180546001600160a01b0319166001600160a01b039092169190911790559181015191860191909155606001516003909401939093559392505050565b61069e604080518082018252600080825282516020818101909452908152909182015290565b6040518060400160405280846001600160801b03191681526020016106dd84604080516020808201835260009091528151908101909152901515815290565b90529392505050565b6040805160c0810182526000808252602082018190528183018190526060808301829052608083019190915260a08201529051633a0ba6ff60e01b81527f00000000000000000000000000000000000000000000000000000000000000006001600160a01b031690633a0ba6ff90610762908590600401610d7b565b600060405180830381865afa15801561077f573d6000803e3d6000fd5b505050506040513d6000823e601f3d908101601f1916820160405261048f9190810190610e9e565b604080516060808201835280825260006020830152818301529051631a0d7ccb60e21b81527f00000000000000000000000000000000000000000000000000000000000000006001600160a01b031690636835f32c9061080b908590600401610efe565b600060405180830381865afa158015610828573d6000803e3d6000fd5b505050506040513d6000823e601f3d908101601f1916820160405261048f9190810190610fab565b6040805160c0810182526000808252602082018190529181019190915260608082018190526080820181905260a08201526000848060200190518101906108979190611236565b905060006108a58585610a02565b90507f00000000000000000000000000000000000000000000000000000000000000006001600160a01b03166312b037ff83836108e0610495565b6040518463ffffffff1660e01b81526004016108fe939291906116b3565b6000604051808303816000875af115801561091d573d6000803e3d6000fd5b505050506040513d6000823e601f3d908101601f191682016040526109459190810190611ab5565b9695505050505050565b6000805b8360600151518110156109e65782600581111561097257610972610d51565b8460600151828151811061098857610988611b95565b60200260200101516000015160058111156109a5576109a5610d51565b036109d457836060015181815181106109c0576109c0611b95565b60200260200101516040015191505061048f565b806109de81611bab565b915050610953565b508160405163267ac2cf60e01b81526004016103d29190610d7b565b610a0a610aa9565b60405163123f493360e21b81526001600160a01b037f000000000000000000000000000000000000000000000000000000000000000016906348fd24cc90610a589086908690600401611bc4565b600060405180830381865afa158015610a75573d6000803e3d6000fd5b505050506040513d6000823e601f3d908101601f19168201604052610a9d9190810190611d04565b9392505050565b905290565b604051806080016040528060006001600160801b03191681526020016060815260200160608152602001610aa4604051806060016040528060608152602001600015158152602001606081525090565b60008060408385031215610b0c57600080fd5b50508035926020909101359150565b600060208284031215610b2d57600080fd5b5035919050565b81516001600160801b0319168152602080830151511515908201526040810161048f565b634e487b7160e01b600052604160045260246000fd5b60405160c081016001600160401b0381118282101715610b9057610b90610b58565b60405290565b60405160a081016001600160401b0381118282101715610b9057610b90610b58565b60405160e081016001600160401b0381118282101715610b9057610b90610b58565b604051608081016001600160401b0381118282101715610b9057610b90610b58565b604051601f8201601f191681016001600160401b0381118282101715610c2457610c24610b58565b604052919050565b60006001600160401b03821115610c4557610c45610b58565b50601f01601f191660200190565b600080600060608486031215610c6857600080fd5b83356001600160401b03811115610c7e57600080fd5b8401601f81018613610c8f57600080fd5b8035610ca2610c9d82610c2c565b610bfc565b818152876020838501011115610cb757600080fd5b8160208401602083013760006020928201830152945085013592505060408401356001600160a01b0381168114610ced57600080fd5b809150509250925092565b80518015158114610d0857600080fd5b919050565b600060208284031215610d1f57600080fd5b610a9d82610cf8565b634e487b7160e01b600052601160045260246000fd5b8082018082111561048f5761048f610d28565b634e487b7160e01b600052602160045260246000fd5b60068110610d7757610d77610d51565b9052565b6020810161048f8284610d67565b805160068110610d0857600080fd5b60005b83811015610db3578181015183820152602001610d9b565b50506000910152565b600082601f830112610dcd57600080fd5b8151610ddb610c9d82610c2c565b818152846020838601011115610df057600080fd5b610e01826020830160208701610d98565b949350505050565b600060c08284031215610e1b57600080fd5b610e23610b6e565b9050610e2e82610d89565b815260208201516020820152610e4660408301610cf8565b6040820152610e5760608301610cf8565b6060820152610e6860808301610cf8565b608082015260a08201516001600160401b03811115610e8657600080fd5b610e9284828501610dbc565b60a08301525092915050565b600060208284031215610eb057600080fd5b81516001600160401b03811115610ec657600080fd5b610e0184828501610e09565b60008151808452610eea816020860160208601610d98565b601f01601f19169290920160200192915050565b602081526000610a9d6020830184610ed2565b600060608284031215610f2357600080fd5b604051606081016001600160401b038282108183111715610f4657610f46610b58565b816040528293508451915080821115610f5e57600080fd5b610f6a86838701610dbc565b8352610f7860208601610cf8565b60208401526040850151915080821115610f9157600080fd5b50610f9e85828601610dbc565b6040830152505092915050565b600060208284031215610fbd57600080fd5b81516001600160401b03811115610fd357600080fd5b610e0184828501610f11565b80516001600160801b031981168114610d0857600080fd5b60006001600160401b0382111561101057611010610b58565b5060051b60200190565b600082601f83011261102b57600080fd5b8151602061103b610c9d83610ff7565b82815260059290921b8401810191818101908684111561105a57600080fd5b8286015b848110156111125780516001600160401b038082111561107e5760008081fd5b9088019060a0828b03601f19018113156110985760008081fd5b6110a0610b96565b6110ab888501610d89565b815260406110ba818601610cf8565b8983015260606110cb818701610cf8565b8284015260809150818601518184015250828501519250838311156110f05760008081fd5b6110fe8d8a85880101610dbc565b90820152865250505091830191830161105e565b509695505050505050565b805160058110610d0857600080fd5b600082601f83011261113d57600080fd5b8151602061114d610c9d83610ff7565b82815260059290921b8401810191818101908684111561116c57600080fd5b8286015b848110156111125780516001600160401b03808211156111905760008081fd5b9088019060c0828b03601f19018113156111aa5760008081fd5b6111b2610b6e565b6111bd88850161111d565b815260406111cc818601610fdf565b8983015260606111dd818701610fdf565b82840152608091506111f0828701610cf8565b9083015260a0858101518284015292850151928484111561121357600091508182fd5b6112218e8b86890101610dbc565b90830152508652505050918301918301611170565b6000602080838503121561124957600080fd5b82516001600160401b038082111561126057600080fd5b9084019060a0828703121561127457600080fd5b61127c610b96565b61128583610fdf565b8152611292848401610fdf565b84820152604083015160408201526060830151828111156112b257600080fd5b6112be88828601610dbc565b606083015250608080840151838111156112d757600080fd5b80850194505087601f8501126112ec57600080fd5b83516112fa610c9d82610ff7565b81815260059190911b8501860190868101908a83111561131957600080fd5b8787015b83811015611401578051878111156113355760008081fd5b880160a0818e03601f1901121561134c5760008081fd5b611354610b96565b8a820151898111156113665760008081fd5b6113748f8d8386010161101a565b82525060408201518981111561138a5760008081fd5b6113988f8d8386010161112c565b8c830152506060820151604082015286820151898111156113b95760008081fd5b6113c78f8d83860101610dbc565b60608301525060a0820151898111156113e05760008081fd5b6113ee8f8d83860101610dbc565b828901525084525091880191880161131d565b50928401929092525090979650505050505050565b60058110610d7757610d77610d51565b600081518084526020808501808196508360051b8101915082860160005b858110156114c3578284038952815160c0611460868351611416565b818701516001600160801b031990811687890152604080840151909116908701526060808301511515908701526080808301519087015260a0918201519186018190526114af81870183610ed2565b9a87019a9550505090840190600101611444565b5091979650505050505050565b6114db828251610d67565b60208101516020830152604081015115156040830152606081015115156060830152608081015115156080830152600060a082015160c060a0850152610e0160c0850182610ed2565b600081518084526020808501808196508360051b8101915082860160005b858110156114c3578284038952815160e061155e868351611416565b818701516001600160801b031990811687890152604080840151909116908701526060808301519087015260808083015115159087015260a08083015115159087015260c0918201519186018190526115b981870183610ed2565b9a87019a9550505090840190600101611542565b60008151606084526115e26060850182610ed2565b9050602083015115156020850152604083015184820360408601526116078282610ed2565b95945050505050565b6000608083016001600160801b0319835116845260208084015160808287015282815180855260a08801915060a08160051b8901019450838301925060005b8181101561167d57609f1989870301835261166b8685516114d0565b9550928401929184019160010161164f565b5050505050604083015184820360408601526116998282611524565b9150506060830151848203606086015261160782826115cd565b600060808083526001600160801b0319808751168285015260208088015182811660a087015250604088015191508160c08601526060880151915060a060e0860152611703610120860183610ed2565b88840151868203607f1901610100880152805180835291935082019082840190600581901b8501840160005b8281101561183c57601f198783030184528451805160a0808552815190850181905260c0600582901b86018101928a01919086019060005b818110156117d15760bf198886030183528351611785868251610d67565b8c81015115158d870152604081015115156040870152606081015160608701528e810151905060a08f8701526117be60a0870182610ed2565b955050928b0192918b0191600101611767565b5050505087820151848203898601526117ea8282611426565b915050604082015160408501526060820151848203606086015261180e8282610ed2565b9150508982015191508381038a8501526118288183610ed2565b96880196958801959350505060010161172f565b50888103858a015261184e818c611610565b8a516001600160801b03191660408b015260208b015151151560608b01529750610e019650505050505050565b600082601f83011261188c57600080fd5b8151602061189c610c9d83610ff7565b82815260059290921b840181019181810190868411156118bb57600080fd5b8286015b848110156111125780516001600160401b03808211156118df5760008081fd5b9088019060a0828b03601f19018113156118f95760008081fd5b611901610b96565b61190c888501610d89565b8152604061191b818601610cf8565b898301526060808601518284015260809150818601518581111561193f5760008081fd5b61194d8f8c838a0101610dbc565b828501525050828501519250838311156119675760008081fd5b6119758d8a85880101610dbc565b9082015286525050509183019183016118bf565b600082601f83011261199a57600080fd5b815160206119aa610c9d83610ff7565b82815260059290921b840181019181810190868411156119c957600080fd5b8286015b848110156111125780516001600160401b03808211156119ed5760008081fd5b9088019060e0828b03601f1901811315611a075760008081fd5b611a0f610bb8565b611a1a88850161111d565b81526040611a29818601610fdf565b898301526060611a3a818701610fdf565b828401526080915081860151818401525060a08086015185811115611a5f5760008081fd5b611a6d8f8c838a0101610dbc565b838501525060c0915081860151818401525082850151925083831115611a935760008081fd5b611aa18d8a85880101610dbc565b9082015286525050509183019183016119cd565b600060208284031215611ac757600080fd5b81516001600160401b0380821115611ade57600080fd5b9083019060c08286031215611af257600080fd5b611afa610b6e565b611b0383610fdf565b8152611b1160208401610fdf565b602082015260408301516040820152606083015182811115611b3257600080fd5b611b3e8782860161187b565b606083015250608083015182811115611b5657600080fd5b611b6287828601611989565b60808301525060a083015182811115611b7a57600080fd5b611b8687828601610dbc565b60a08301525095945050505050565b634e487b7160e01b600052603260045260246000fd5b600060018201611bbd57611bbd610d28565b5060010190565b604081526000611bd760408301856114d0565b828103602084015261160781856115cd565b600082601f830112611bfa57600080fd5b81516020611c0a610c9d83610ff7565b82815260059290921b84018101918181019086841115611c2957600080fd5b8286015b848110156111125780516001600160401b0380821115611c4d5760008081fd5b9088019060e0828b03601f1901811315611c675760008081fd5b611c6f610bb8565b611c7a88850161111d565b81526040611c89818601610fdf565b898301526060611c9a818701610fdf565b828401526080915081860151818401525060a0611cb8818701610cf8565b8284015260c09150611ccb828701610cf8565b90830152918401519183831115611ce25760008081fd5b611cf08d8a85880101610dbc565b908201528652505050918301918301611c2d565b60006020808385031215611d1757600080fd5b82516001600160401b0380821115611d2e57600080fd5b9084019060808287031215611d4257600080fd5b611d4a610bda565b611d5383610fdf565b81528383015182811115611d6657600080fd5b8301601f81018813611d7757600080fd5b8051611d85610c9d82610ff7565b81815260059190911b8201860190868101908a831115611da457600080fd5b8784015b83811015611ddc57805187811115611dc05760008081fd5b611dce8d8b83890101610e09565b845250918801918801611da8565b508088860152505050506040830151935081841115611dfa57600080fd5b611e0687858501611be9565b60408201526060830151935081841115611e1f57600080fd5b611e2b87858501610f11565b6060820152969550505050505056fea2646970667358221220e36bbd0cdc37dbec71950370c6874e15dc812816e7559dbe26a6eaf72c51c19364736f6c63430008130033",
    "linkReferences": {}
  },
  "methodIdentifiers": {
    "ADDRESSES_PROVIDER_V2()": "46916301",
    "APP_ID()": "c187bbc1",
    "DEPOSIT_AMOUNT()": "ec6925a7",
    "IS_IMPERSONATION_MODE()": "a183dc27",
    "N_BLOCKS_DELAY()": "2be64754",
    "SISMO_CONNECT_LIB_VERSION()": "c9512d99",
    "TOKEN_ADDRESS()": "0bdf5300",
    "ZERO_ADDRESS()": "538ba4f9",
    "config()": "79502c55",
    "isClaimed(uint256)": "9e34070f",
    "nullRedeemInformation()": "523c5d2c",
    "redeem(bytes,uint256,address)": "c8841c80",
    "vaultIdToRedeemInformation(uint256)": "4e166016",
    "withdraw(uint256,uint256)": "441a3e70"
  },
  "id": 11
}