{
  "abi": [
    {
      "inputs": [
        {
          "internalType": "address",
          "name": "_tokenAddress",
          "type": "address"
        },
        {
          "internalType": "bytes16",
          "name": "_appId",
          "type": "bytes16"
        }
      ],
      "stateMutability": "nonpayable",
      "type": "constructor"
    },
    {
      "inputs": [
        {
          "internalType": "enum AuthType",
          "name": "authType",
          "type": "uint8"
        }
      ],
      "name": "AuthTypeNotFoundInVerifiedResult",
      "type": "error"
    },
    {
      "inputs": [
        {
          "internalType": "uint256",
          "name": "vaultId",
          "type": "uint256"
        }
      ],
      "name": "isAlreadyClaimed",
      "type": "error"
    },
    {
      "inputs": [
        {
          "internalType": "uint256",
          "name": "vaultId",
          "type": "uint256"
        }
      ],
      "name": "notInPendingList",
      "type": "error"
    },
    {
      "inputs": [],
      "name": "zeroAddress",
      "type": "error"
    },
    {
      "inputs": [],
      "name": "zeroVaultId",
      "type": "error"
    },
    {
      "inputs": [],
      "name": "ADDRESSES_PROVIDER_V2",
      "outputs": [
        {
          "internalType": "contract IAddressesProvider",
          "name": "",
          "type": "address"
        }
      ],
      "stateMutability": "view",
      "type": "function"
    },
    {
      "inputs": [],
      "name": "APP_ID",
      "outputs": [
        {
          "internalType": "bytes16",
          "name": "",
          "type": "bytes16"
        }
      ],
      "stateMutability": "view",
      "type": "function"
    },
    {
      "inputs": [],
      "name": "DEPOSIT_AMOUNT",
      "outputs": [
        {
          "internalType": "uint256",
          "name": "",
          "type": "uint256"
        }
      ],
      "stateMutability": "view",
      "type": "function"
    },
    {
      "inputs": [],
      "name": "IS_IMPERSONATION_MODE",
      "outputs": [
        {
          "internalType": "bool",
          "name": "",
          "type": "bool"
        }
      ],
      "stateMutability": "view",
      "type": "function"
    },
    {
      "inputs": [],
      "name": "N_BLOCKS_DELAY",
      "outputs": [
        {
          "internalType": "uint8",
          "name": "",
          "type": "uint8"
        }
      ],
      "stateMutability": "view",
      "type": "function"
    },
    {
      "inputs": [],
      "name": "SISMO_CONNECT_LIB_VERSION",
      "outputs": [
        {
          "internalType": "uint256",
          "name": "",
          "type": "uint256"
        }
      ],
      "stateMutability": "view",
      "type": "function"
    },
    {
      "inputs": [],
      "name": "ZERO_ADDRESS",
      "outputs": [
        {
          "internalType": "address",
          "name": "",
          "type": "address"
        }
      ],
      "stateMutability": "view",
      "type": "function"
    },
    {
      "inputs": [],
      "name": "config",
      "outputs": [
        {
          "components": [
            {
              "internalType": "bytes16",
              "name": "appId",
              "type": "bytes16"
            },
            {
              "components": [
                {
                  "internalType": "bool",
                  "name": "isImpersonationMode",
                  "type": "bool"
                }
              ],
              "internalType": "struct VaultConfig",
              "name": "vault",
              "type": "tuple"
            }
          ],
          "internalType": "struct SismoConnectConfig",
          "name": "",
          "type": "tuple"
        }
      ],
      "stateMutability": "view",
      "type": "function"
    },
    {
      "inputs": [
        {
          "internalType": "uint256",
          "name": "",
          "type": "uint256"
        }
      ],
      "name": "isClaimed",
      "outputs": [
        {
          "internalType": "bool",
          "name": "",
          "type": "bool"
        }
      ],
      "stateMutability": "view",
      "type": "function"
    },
    {
      "inputs": [],
      "name": "nullRedeemInformation",
      "outputs": [
        {
          "internalType": "bytes32",
          "name": "",
          "type": "bytes32"
        }
      ],
      "stateMutability": "view",
      "type": "function"
    },
    {
      "inputs": [
        {
          "internalType": "bytes",
          "name": "response",
          "type": "bytes"
        },
        {
          "internalType": "uint256",
          "name": "redeemGasFee",
          "type": "uint256"
        },
        {
          "internalType": "address",
          "name": "outputAddress",
          "type": "address"
        }
      ],
      "name": "redeem",
      "outputs": [],
      "stateMutability": "nonpayable",
      "type": "function"
    },
    {
      "inputs": [],
      "name": "tokenAddress",
      "outputs": [
        {
          "internalType": "address",
          "name": "",
          "type": "address"
        }
      ],
      "stateMutability": "view",
      "type": "function"
    },
    {
      "inputs": [
        {
          "internalType": "uint256",
          "name": "",
          "type": "uint256"
        }
      ],
      "name": "vaultIdToRedeemInformation",
      "outputs": [
        {
          "internalType": "uint256",
          "name": "vaultId",
          "type": "uint256"
        },
        {
          "internalType": "address",
          "name": "outputAddress",
          "type": "address"
        },
        {
          "internalType": "uint256",
          "name": "releaseTimestamp",
          "type": "uint256"
        },
        {
          "internalType": "uint256",
          "name": "gasFee",
          "type": "uint256"
        }
      ],
      "stateMutability": "view",
      "type": "function"
    },
    {
      "inputs": [
        {
          "internalType": "uint256",
          "name": "withdrawGasFee",
          "type": "uint256"
        },
        {
          "internalType": "uint256",
          "name": "vaultId",
          "type": "uint256"
        }
      ],
      "name": "withdraw",
      "outputs": [],
      "stateMutability": "nonpayable",
      "type": "function"
    }
  ],
  "bytecode": {
    "object": "0x6101606040526000805460ff191660011790553480156200001f57600080fd5b5060405162002551380380620025518339810160408190526200004291620004bd565b6000546200005590829060ff166200043e565b80516001600160801b0319166101205260208082015151151561014052604080518082018252601981527f7369736d6f436f6e6e65637456657269666965722d76312e3200000000000000928101929092525163349f642f60e11b8152733cd5334eb64ebbd4003b72022cc25465f1bfcee69163693ec85e91620000dd919060040162000506565b602060405180830381865afa158015620000fb573d6000803e3d6000fd5b505050506040513d601f19601f8201168201806040525081019062000121919062000556565b6001600160a01b0316608052604080518082018252601781527f61757468526571756573744275696c6465722d76312e310000000000000000006020820152905163349f642f60e11b8152733cd5334eb64ebbd4003b72022cc25465f1bfcee69163693ec85e9162000197919060040162000506565b602060405180830381865afa158015620001b5573d6000803e3d6000fd5b505050506040513d601f19601f82011682018060405250810190620001db919062000556565b6001600160a01b031660a052604080518082018252601881527f636c61696d526571756573744275696c6465722d76312e3100000000000000006020820152905163349f642f60e11b8152733cd5334eb64ebbd4003b72022cc25465f1bfcee69163693ec85e9162000251919060040162000506565b602060405180830381865afa1580156200026f573d6000803e3d6000fd5b505050506040513d601f19601f8201168201806040525081019062000295919062000556565b6001600160a01b031660c052604080518082018252601581527f7369676e61747572654275696c6465722d76312e3100000000000000000000006020820152905163349f642f60e11b8152733cd5334eb64ebbd4003b72022cc25465f1bfcee69163693ec85e916200030b919060040162000506565b602060405180830381865afa15801562000329573d6000803e3d6000fd5b505050506040513d601f19601f820116820180604052508101906200034f919062000556565b6001600160a01b031660e052604080518082018252601381527f726571756573744275696c6465722d76312e31000000000000000000000000006020820152905163349f642f60e11b8152733cd5334eb64ebbd4003b72022cc25465f1bfcee69163693ec85e91620003c5919060040162000506565b602060405180830381865afa158015620003e3573d6000803e3d6000fd5b505050506040513d601f19601f8201168201806040525081019062000409919062000556565b6001600160a01b0390811661010090815260008054610100600160a81b031916959092160293909317909255506200057b9050565b62000465604080518082018252600080825282516020818101909452908152909182015290565b506040805180820182526001600160801b03199390931683528051602080820183526000909152815180820190925291151581529082015290565b80516001600160a01b0381168114620004b857600080fd5b919050565b60008060408385031215620004d157600080fd5b620004dc83620004a0565b60208401519092506001600160801b031981168114620004fb57600080fd5b809150509250929050565b600060208083528351808285015260005b81811015620005355785810183015185820160400152820162000517565b506000604082860101526040601f19601f8301168501019250505092915050565b6000602082840312156200056957600080fd5b6200057482620004a0565b9392505050565b60805160a05160c05160e051610100516101205161014051611f70620005e1600039600081816102a001526105c30152600081816102c701526105a201526000610b08015260006108b5015260005050600061080c015260006109900152611f706000f3fe608060405234801561001057600080fd5b50600436106100ea5760003560e01c80639d76ea581161008c578063c187bbc111610066578063c187bbc1146102c2578063c8841c8014610302578063c9512d9914610315578063ec6925a71461031d57600080fd5b80639d76ea58146102505780639e34070f14610268578063a183dc271461029b57600080fd5b80634e166016116100c85780634e16601614610156578063523c5d2c146101be578063538ba4f91461023357806379502c551461023b57600080fd5b80632be64754146100ef578063441a3e701461010e5780634691630114610123575b600080fd5b6100f7600181565b60405160ff90911681526020015b60405180910390f35b61012161011c366004610be0565b61032c565b005b61013e733cd5334eb64ebbd4003b72022cc25465f1bfcee681565b6040516001600160a01b039091168152602001610105565b610196610164366004610c02565b6002602081905260009182526040909120805460018201549282015460039092015490926001600160a01b0316919084565b604080519485526001600160a01b039093166020850152918301526060820152608001610105565b610225604080516080808201835260008083526020808401828152848601838152606095860184815287518085019590955291516001600160a01b03168488015251948301949094529251818301528351808203909201825260a001909252815191012081565b604051908152602001610105565b61013e600081565b610243610577565b6040516101059190610c1b565b60005461013e9061010090046001600160a01b031681565b61028b610276366004610c02565b60016020526000908152604090205460ff1681565b6040519015158152602001610105565b61028b7f000000000000000000000000000000000000000000000000000000000000000081565b6102e97f000000000000000000000000000000000000000000000000000000000000000081565b6040516001600160801b03199091168152602001610105565b610121610310366004610d3a565b6105ec565b610225600281565b610225678ac7230489e8000081565b6000818152600260205260408120600381015490919061034d908590610df5565b6000805460408051608080820183528482526020808301868152838501878152606094850188815286518085019990995291516001600160a01b039081168988015290519488019490945251868301528351808703909201825260a086019093528051920191909120865460c08501526001870154821660e085015260028701546101008086019190915260038801546101208601529495509390910416919061014001604051602081830303815290604052805190602001200361042d5760405163a1a7850f60e01b8152600481018590526024015b60405180910390fd5b6040516323b872dd60e01b8152336004820152306024820152604481018390526001600160a01b038216906323b872dd906064016020604051808303816000875af1158015610480573d6000803e3d6000fd5b505050506040513d601f19601f820116820180604052508101906104a49190610e1d565b5060008481526002602081905260408220828155600180820180546001600160a01b0319169055918101839055600301919091558301546001600160a01b038281169163a9059cbb911661050085678ac7230489e80000610e38565b6040516001600160e01b031960e085901b1681526001600160a01b03909216600483015260248201526044016020604051808303816000875af115801561054b573d6000803e3d6000fd5b505050506040513d601f19601f8201168201806040525081019061056f9190610e1d565b505050505050565b61059d604080518082018252600080825282516020818101909452908152909182015290565b6105e77f00000000000000000000000000000000000000000000000000000000000000007f000000000000000000000000000000000000000000000000000000000000000061075d565b905090565b6001600160a01b03811661061357604051630930907b60e01b815260040160405180910390fd5b60006106528461062360006107cd565b61064d8660405160200161063991815260200190565b60405160208183030381529060405261088e565b610937565b905060006106608282610a36565b905080600003610683576040516334689fd560e11b815260040160405180910390fd5b60008181526001602052604090205460ff16156106b657604051635a2d0b9d60e11b815260048101829052602401610424565b600081815260016020818152604092839020805460ff19168317905582516080810184528481526001600160a01b03871691810191909152918201906106fc9042610df5565b81526020908101959095526000918252600280865260409283902082518155958201516001870180546001600160a01b0319166001600160a01b03909216919091179055918101519185019190915560600151600390930192909255505050565b610783604080518082018252600080825282516020818101909452908152909182015290565b6040518060400160405280846001600160801b03191681526020016107c284604080516020808201835260009091528151908101909152901515815290565b905290505b92915050565b6040805160c0810182526000808252602082018190528183018190526060808301829052608083019190915260a08201529051633a0ba6ff60e01b81527f00000000000000000000000000000000000000000000000000000000000000006001600160a01b031690633a0ba6ff90610849908590600401610e75565b600060405180830381865afa158015610866573d6000803e3d6000fd5b505050506040513d6000823e601f3d908101601f191682016040526107c79190810190610f98565b604080516060808201835280825260006020830152818301529051631a0d7ccb60e21b81527f00000000000000000000000000000000000000000000000000000000000000006001600160a01b031690636835f32c906108f2908590600401610ff8565b600060405180830381865afa15801561090f573d6000803e3d6000fd5b505050506040513d6000823e601f3d908101601f191682016040526107c791908101906110a5565b6040805160c0810182526000808252602082018190529181019190915260608082018190526080820181905260a082015260008480602001905181019061097e9190611330565b9050600061098c8585610ae9565b90507f00000000000000000000000000000000000000000000000000000000000000006001600160a01b03166312b037ff83836109c7610577565b6040518463ffffffff1660e01b81526004016109e5939291906117b3565b6000604051808303816000875af1158015610a04573d6000803e3d6000fd5b505050506040513d6000823e601f3d908101601f19168201604052610a2c9190810190611bb5565b9695505050505050565b6000805b836060015151811015610acd57826005811115610a5957610a59610e4b565b84606001518281518110610a6f57610a6f611c95565b6020026020010151600001516005811115610a8c57610a8c610e4b565b03610abb5783606001518181518110610aa757610aa7611c95565b6020026020010151604001519150506107c7565b80610ac581611cab565b915050610a3a565b508160405163267ac2cf60e01b81526004016104249190610e75565b610af1610b90565b60405163123f493360e21b81526001600160a01b037f000000000000000000000000000000000000000000000000000000000000000016906348fd24cc90610b3f9086908690600401611cc4565b600060405180830381865afa158015610b5c573d6000803e3d6000fd5b505050506040513d6000823e601f3d908101601f19168201604052610b849190810190611e04565b9392505050565b905290565b604051806080016040528060006001600160801b03191681526020016060815260200160608152602001610b8b604051806060016040528060608152602001600015158152602001606081525090565b60008060408385031215610bf357600080fd5b50508035926020909101359150565b600060208284031215610c1457600080fd5b5035919050565b81516001600160801b031916815260208083015151151590820152604081016107c7565b634e487b7160e01b600052604160045260246000fd5b60405160c081016001600160401b0381118282101715610c7757610c77610c3f565b60405290565b60405160a081016001600160401b0381118282101715610c7757610c77610c3f565b60405160e081016001600160401b0381118282101715610c7757610c77610c3f565b604051608081016001600160401b0381118282101715610c7757610c77610c3f565b604051601f8201601f191681016001600160401b0381118282101715610d0b57610d0b610c3f565b604052919050565b60006001600160401b03821115610d2c57610d2c610c3f565b50601f01601f191660200190565b600080600060608486031215610d4f57600080fd5b83356001600160401b03811115610d6557600080fd5b8401601f81018613610d7657600080fd5b8035610d89610d8482610d13565b610ce3565b818152876020838501011115610d9e57600080fd5b8160208401602083013760006020928201830152945085013592505060408401356001600160a01b0381168114610dd457600080fd5b809150509250925092565b634e487b7160e01b600052601160045260246000fd5b808201808211156107c7576107c7610ddf565b80518015158114610e1857600080fd5b919050565b600060208284031215610e2f57600080fd5b610b8482610e08565b818103818111156107c7576107c7610ddf565b634e487b7160e01b600052602160045260246000fd5b60068110610e7157610e71610e4b565b9052565b602081016107c78284610e61565b805160068110610e1857600080fd5b60005b83811015610ead578181015183820152602001610e95565b50506000910152565b600082601f830112610ec757600080fd5b8151610ed5610d8482610d13565b818152846020838601011115610eea57600080fd5b610efb826020830160208701610e92565b949350505050565b600060c08284031215610f1557600080fd5b610f1d610c55565b9050610f2882610e83565b815260208201516020820152610f4060408301610e08565b6040820152610f5160608301610e08565b6060820152610f6260808301610e08565b608082015260a08201516001600160401b03811115610f8057600080fd5b610f8c84828501610eb6565b60a08301525092915050565b600060208284031215610faa57600080fd5b81516001600160401b03811115610fc057600080fd5b610efb84828501610f03565b60008151808452610fe4816020860160208601610e92565b601f01601f19169290920160200192915050565b602081526000610b846020830184610fcc565b60006060828403121561101d57600080fd5b604051606081016001600160401b03828210818311171561104057611040610c3f565b81604052829350845191508082111561105857600080fd5b61106486838701610eb6565b835261107260208601610e08565b6020840152604085015191508082111561108b57600080fd5b5061109885828601610eb6565b6040830152505092915050565b6000602082840312156110b757600080fd5b81516001600160401b038111156110cd57600080fd5b610efb8482850161100b565b80516001600160801b031981168114610e1857600080fd5b60006001600160401b0382111561110a5761110a610c3f565b5060051b60200190565b600082601f83011261112557600080fd5b81516020611135610d84836110f1565b82815260059290921b8401810191818101908684111561115457600080fd5b8286015b8481101561120c5780516001600160401b03808211156111785760008081fd5b9088019060a0828b03601f19018113156111925760008081fd5b61119a610c7d565b6111a5888501610e83565b815260406111b4818601610e08565b8983015260606111c5818701610e08565b8284015260809150818601518184015250828501519250838311156111ea5760008081fd5b6111f88d8a85880101610eb6565b908201528652505050918301918301611158565b509695505050505050565b805160058110610e1857600080fd5b600082601f83011261123757600080fd5b81516020611247610d84836110f1565b82815260059290921b8401810191818101908684111561126657600080fd5b8286015b8481101561120c5780516001600160401b038082111561128a5760008081fd5b9088019060c0828b03601f19018113156112a45760008081fd5b6112ac610c55565b6112b7888501611217565b815260406112c68186016110d9565b8983015260606112d78187016110d9565b82840152608091506112ea828701610e08565b9083015260a0858101518284015292850151928484111561130d57600091508182fd5b61131b8e8b86890101610eb6565b9083015250865250505091830191830161126a565b6000602080838503121561134357600080fd5b82516001600160401b038082111561135a57600080fd5b9084019060a0828703121561136e57600080fd5b611376610c7d565b61137f836110d9565b815261138c8484016110d9565b84820152604083015160408201526060830151828111156113ac57600080fd5b6113b888828601610eb6565b606083015250608080840151838111156113d157600080fd5b80850194505087601f8501126113e657600080fd5b83516113f4610d84826110f1565b81815260059190911b8501860190868101908a83111561141357600080fd5b8787015b838110156114fb5780518781111561142f5760008081fd5b880160a0818e03601f190112156114465760008081fd5b61144e610c7d565b8a820151898111156114605760008081fd5b61146e8f8d83860101611114565b8252506040820151898111156114845760008081fd5b6114928f8d83860101611226565b8c830152506060820151604082015286820151898111156114b35760008081fd5b6114c18f8d83860101610eb6565b60608301525060a0820151898111156114da5760008081fd5b6114e88f8d83860101610eb6565b8289015250845250918801918801611417565b50928401929092525090979650505050505050565b60058110610e7157610e71610e4b565b600082825180855260208086019550808260051b84010181860160005b848110156115c057601f19868403018952815160c061155d858351611510565b818601516001600160801b031990811686880152604080840151909116908601526060808301511515908601526080808301519086015260a0918201519185018190526115ac81860183610fcc565b9a86019a945050509083019060010161153d565b5090979650505050505050565b6115d8828251610e61565b60208101516020830152604081015115156040830152606081015115156060830152608081015115156080830152600060a082015160c060a0850152610efb60c0850182610fcc565b600082825180855260208086019550808260051b84010181860160005b848110156115c057601f19868403018952815160e061165e858351611510565b818601516001600160801b031990811686880152604080840151909116908601526060808301519086015260808083015115159086015260a08083015115159086015260c0918201519185018190526116b981860183610fcc565b9a86019a945050509083019060010161163e565b60008151606084526116e26060850182610fcc565b9050602083015115156020850152604083015184820360408601526117078282610fcc565b95945050505050565b6000608083016001600160801b0319835116845260208084015160808287015282815180855260a08801915060a08160051b8901019450838301925060005b8181101561177d57609f1989870301835261176b8685516115cd565b9550928401929184019160010161174f565b5050505050604083015184820360408601526117998282611621565b9150506060830151848203606086015261170782826116cd565b600060808083526001600160801b0319808751168285015260208088015182811660a087015250604088015191508160c08601526060880151915060a060e0860152611803610120860183610fcc565b88840151868203607f1901610100880152805180835291935082019082840190600581901b8501840160005b8281101561193c57601f198783030184528451805160a0808552815190850181905260c0600582901b86018101928a01919086019060005b818110156118d15760bf198886030183528351611885868251610e61565b8c81015115158d870152604081015115156040870152606081015160608701528e810151905060a08f8701526118be60a0870182610fcc565b955050928b0192918b0191600101611867565b5050505087820151848203898601526118ea8282611520565b915050604082015160408501526060820151848203606086015261190e8282610fcc565b9150508982015191508381038a8501526119288183610fcc565b96880196958801959350505060010161182f565b50888103858a015261194e818c611710565b8a516001600160801b03191660408b015260208b015151151560608b01529750610efb9650505050505050565b600082601f83011261198c57600080fd5b8151602061199c610d84836110f1565b82815260059290921b840181019181810190868411156119bb57600080fd5b8286015b8481101561120c5780516001600160401b03808211156119df5760008081fd5b9088019060a0828b03601f19018113156119f95760008081fd5b611a01610c7d565b611a0c888501610e83565b81526040611a1b818601610e08565b8983015260608086015182840152608091508186015185811115611a3f5760008081fd5b611a4d8f8c838a0101610eb6565b82850152505082850151925083831115611a675760008081fd5b611a758d8a85880101610eb6565b9082015286525050509183019183016119bf565b600082601f830112611a9a57600080fd5b81516020611aaa610d84836110f1565b82815260059290921b84018101918181019086841115611ac957600080fd5b8286015b8481101561120c5780516001600160401b0380821115611aed5760008081fd5b9088019060e0828b03601f1901811315611b075760008081fd5b611b0f610c9f565b611b1a888501611217565b81526040611b298186016110d9565b898301526060611b3a8187016110d9565b828401526080915081860151818401525060a08086015185811115611b5f5760008081fd5b611b6d8f8c838a0101610eb6565b838501525060c0915081860151818401525082850151925083831115611b935760008081fd5b611ba18d8a85880101610eb6565b908201528652505050918301918301611acd565b600060208284031215611bc757600080fd5b81516001600160401b0380821115611bde57600080fd5b9083019060c08286031215611bf257600080fd5b611bfa610c55565b611c03836110d9565b8152611c11602084016110d9565b602082015260408301516040820152606083015182811115611c3257600080fd5b611c3e8782860161197b565b606083015250608083015182811115611c5657600080fd5b611c6287828601611a89565b60808301525060a083015182811115611c7a57600080fd5b611c8687828601610eb6565b60a08301525095945050505050565b634e487b7160e01b600052603260045260246000fd5b600060018201611cbd57611cbd610ddf565b5060010190565b604081526000611cd760408301856115cd565b828103602084015261170781856116cd565b600082601f830112611cfa57600080fd5b81516020611d0a610d84836110f1565b82815260059290921b84018101918181019086841115611d2957600080fd5b8286015b8481101561120c5780516001600160401b0380821115611d4d5760008081fd5b9088019060e0828b03601f1901811315611d675760008081fd5b611d6f610c9f565b611d7a888501611217565b81526040611d898186016110d9565b898301526060611d9a8187016110d9565b828401526080915081860151818401525060a0611db8818701610e08565b8284015260c09150611dcb828701610e08565b90830152918401519183831115611de25760008081fd5b611df08d8a85880101610eb6565b908201528652505050918301918301611d2d565b60006020808385031215611e1757600080fd5b82516001600160401b0380821115611e2e57600080fd5b9084019060808287031215611e4257600080fd5b611e4a610cc1565b611e53836110d9565b81528383015182811115611e6657600080fd5b8301601f81018813611e7757600080fd5b8051611e85610d84826110f1565b81815260059190911b8201860190868101908a831115611ea457600080fd5b8784015b83811015611edc57805187811115611ec05760008081fd5b611ece8d8b83890101610f03565b845250918801918801611ea8565b508088860152505050506040830151935081841115611efa57600080fd5b611f0687858501611ce9565b60408201526060830151935081841115611f1f57600080fd5b611f2b8785850161100b565b6060820152969550505050505056fea264697066735822122045e553497c4cf4adc55aa69de52876a3ba75c5df1fd5322cbfe84f630349f39364736f6c63430008130033",
    "linkReferences": {}
  },
  "methodIdentifiers": {
    "ADDRESSES_PROVIDER_V2()": "46916301",
    "APP_ID()": "c187bbc1",
    "DEPOSIT_AMOUNT()": "ec6925a7",
    "IS_IMPERSONATION_MODE()": "a183dc27",
    "N_BLOCKS_DELAY()": "2be64754",
    "SISMO_CONNECT_LIB_VERSION()": "c9512d99",
    "ZERO_ADDRESS()": "538ba4f9",
    "config()": "79502c55",
    "isClaimed(uint256)": "9e34070f",
    "nullRedeemInformation()": "523c5d2c",
    "redeem(bytes,uint256,address)": "c8841c80",
    "tokenAddress()": "9d76ea58",
    "vaultIdToRedeemInformation(uint256)": "4e166016",
    "withdraw(uint256,uint256)": "441a3e70"
  },
  "id": 10
}