{
  "abi": [
    {
      "anonymous": false,
      "inputs": [
        {
          "indexed": true,
          "internalType": "address",
          "name": "sender",
          "type": "address"
        }
      ],
      "name": "FireDeposit",
      "type": "event"
    },
    {
      "inputs": [],
      "name": "DEPOSIT_AMOUNT",
      "outputs": [
        {
          "internalType": "uint256",
          "name": "",
          "type": "uint256"
        }
      ],
      "stateMutability": "view",
      "type": "function"
    },
    {
      "inputs": [],
      "name": "deposit",
      "outputs": [
        {
          "internalType": "bool",
          "name": "",
          "type": "bool"
        }
      ],
      "stateMutability": "payable",
      "type": "function"
    },
    {
      "inputs": [
        {
          "internalType": "uint256",
          "name": "",
          "type": "uint256"
        }
      ],
      "name": "registry",
      "outputs": [
        {
          "internalType": "address",
          "name": "",
          "type": "address"
        }
      ],
      "stateMutability": "view",
      "type": "function"
    }
  ],
  "bytecode": {
    "object": "0x608060405234801561001057600080fd5b50610247806100206000396000f3fe6080604052600436106100345760003560e01c80635893253c14610039578063d0e30db014610076578063ec6925a71461008e575b600080fd5b34801561004557600080fd5b506100596100543660046101cf565b6100b8565b6040516001600160a01b0390911681526020015b60405180910390f35b61007e6100e2565b604051901515815260200161006d565b34801561009a57600080fd5b506100aa678ac7230489e8000081565b60405190815260200161006d565b600081815481106100c857600080fd5b6000918252602090912001546001600160a01b0316905081565b6040516323b872dd60e01b81523360048201819052306024830152678ac7230489e8000060448301526000918291906323b872dd906064016020604051808303816000875af1158015610139573d6000803e3d6000fd5b505050506040513d601f19601f8201168201806040525081019061015d91906101e8565b600080546001810182558180527f290decd9548b62a8d60345a988386fc84ba6bc95484008f6362f93160ef3e5630180546001600160a01b03191633908117909155604051929350917f37527533da20f80a0c2dbaca19687831c0c1a250564dad6d8d10ae150ad696189190a2919050565b6000602082840312156101e157600080fd5b5035919050565b6000602082840312156101fa57600080fd5b8151801515811461020a57600080fd5b939250505056fea2646970667358221220498ea9a7b556d0eb8cd411585f14d069f84fe9dd40034e36f6c9c5f71b73649d64736f6c63430008130033",
    "linkReferences": {}
  },
  "methodIdentifiers": {
    "DEPOSIT_AMOUNT()": "ec6925a7",
    "deposit()": "d0e30db0",
    "registry(uint256)": "5893253c"
  },
  "id": 10
}