{
  "abi": [
    {
      "anonymous": false,
      "inputs": [
        {
          "indexed": true,
          "internalType": "address",
          "name": "sender",
          "type": "address"
        }
      ],
      "name": "FireDeposit",
      "type": "event"
    },
    {
      "inputs": [],
      "name": "DEPOSIT_AMOUNT",
      "outputs": [
        {
          "internalType": "uint256",
          "name": "",
          "type": "uint256"
        }
      ],
      "stateMutability": "view",
      "type": "function"
    },
    {
      "inputs": [],
      "name": "deposit",
      "outputs": [],
      "stateMutability": "payable",
      "type": "function"
    },
    {
      "inputs": [
        {
          "internalType": "uint256",
          "name": "",
          "type": "uint256"
        }
      ],
      "name": "registry",
      "outputs": [
        {
          "internalType": "address",
          "name": "",
          "type": "address"
        }
      ],
      "stateMutability": "view",
      "type": "function"
    }
  ],
  "bytecode": {
    "object": "0x608060405234801561001057600080fd5b5061022f806100206000396000f3fe6080604052600436106100345760003560e01c80635893253c14610039578063d0e30db014610076578063ec6925a714610080575b600080fd5b34801561004557600080fd5b506100596100543660046101b7565b6100aa565b6040516001600160a01b0390911681526020015b60405180910390f35b61007e6100d4565b005b34801561008c57600080fd5b5061009c678ac7230489e8000081565b60405190815260200161006d565b600081815481106100ba57600080fd5b6000918252602090912001546001600160a01b0316905081565b6040516323b872dd60e01b81523360048201819052306024830152678ac7230489e800006044830152906323b872dd906064016020604051808303816000875af1158015610126573d6000803e3d6000fd5b505050506040513d601f19601f8201168201806040525081019061014a91906101d0565b50600080546001810182558180527f290decd9548b62a8d60345a988386fc84ba6bc95484008f6362f93160ef3e5630180546001600160a01b0319163390811790915560405190917f37527533da20f80a0c2dbaca19687831c0c1a250564dad6d8d10ae150ad6961891a2565b6000602082840312156101c957600080fd5b5035919050565b6000602082840312156101e257600080fd5b815180151581146101f257600080fd5b939250505056fea2646970667358221220d330ece85e2b0561b6e34098b8c28cc5f773b218361896dbaec2462f960f0ef864736f6c63430008130033",
    "linkReferences": {}
  },
  "methodIdentifiers": {
    "DEPOSIT_AMOUNT()": "ec6925a7",
    "deposit()": "d0e30db0",
    "registry(uint256)": "5893253c"
  },
  "id": 10
}