{
  "abi": [
    {
      "inputs": [],
      "name": "InvalidUserIdAndAuthType",
      "type": "error"
    },
    {
      "inputs": [],
      "name": "InvalidUserIdAndIsSelectableByUserAuthType",
      "type": "error"
    },
    {
      "inputs": [],
      "name": "DEFAULT_AUTH_REQUEST_EXTRA_DATA",
      "outputs": [
        {
          "internalType": "bytes",
          "name": "",
          "type": "bytes"
        }
      ],
      "stateMutability": "view",
      "type": "function"
    },
    {
      "inputs": [],
      "name": "DEFAULT_AUTH_REQUEST_IS_ANON",
      "outputs": [
        {
          "internalType": "bool",
          "name": "",
          "type": "bool"
        }
      ],
      "stateMutability": "view",
      "type": "function"
    },
    {
      "inputs": [],
      "name": "DEFAULT_AUTH_REQUEST_IS_OPTIONAL",
      "outputs": [
        {
          "internalType": "bool",
          "name": "",
          "type": "bool"
        }
      ],
      "stateMutability": "view",
      "type": "function"
    },
    {
      "inputs": [],
      "name": "DEFAULT_AUTH_REQUEST_USER_ID",
      "outputs": [
        {
          "internalType": "uint256",
          "name": "",
          "type": "uint256"
        }
      ],
      "stateMutability": "view",
      "type": "function"
    },
    {
      "inputs": [
        {
          "internalType": "enum AuthType",
          "name": "authType",
          "type": "uint8"
        },
        {
          "internalType": "bool",
          "name": "isAnon",
          "type": "bool"
        },
        {
          "internalType": "bytes",
          "name": "extraData",
          "type": "bytes"
        }
      ],
      "name": "build",
      "outputs": [
        {
          "components": [
            {
              "internalType": "enum AuthType",
              "name": "authType",
              "type": "uint8"
            },
            {
              "internalType": "uint256",
              "name": "userId",
              "type": "uint256"
            },
            {
              "internalType": "bool",
              "name": "isAnon",
              "type": "bool"
            },
            {
              "internalType": "bool",
              "name": "isOptional",
              "type": "bool"
            },
            {
              "internalType": "bool",
              "name": "isSelectableByUser",
              "type": "bool"
            },
            {
              "internalType": "bytes",
              "name": "extraData",
              "type": "bytes"
            }
          ],
          "internalType": "struct AuthRequest",
          "name": "",
          "type": "tuple"
        }
      ],
      "stateMutability": "pure",
      "type": "function"
    },
    {
      "inputs": [
        {
          "internalType": "enum AuthType",
          "name": "authType",
          "type": "uint8"
        },
        {
          "internalType": "bool",
          "name": "isAnon",
          "type": "bool"
        }
      ],
      "name": "build",
      "outputs": [
        {
          "components": [
            {
              "internalType": "enum AuthType",
              "name": "authType",
              "type": "uint8"
            },
            {
              "internalType": "uint256",
              "name": "userId",
              "type": "uint256"
            },
            {
              "internalType": "bool",
              "name": "isAnon",
              "type": "bool"
            },
            {
              "internalType": "bool",
              "name": "isOptional",
              "type": "bool"
            },
            {
              "internalType": "bool",
              "name": "isSelectableByUser",
              "type": "bool"
            },
            {
              "internalType": "bytes",
              "name": "extraData",
              "type": "bytes"
            }
          ],
          "internalType": "struct AuthRequest",
          "name": "",
          "type": "tuple"
        }
      ],
      "stateMutability": "pure",
      "type": "function"
    },
    {
      "inputs": [
        {
          "internalType": "enum AuthType",
          "name": "authType",
          "type": "uint8"
        },
        {
          "internalType": "bool",
          "name": "isAnon",
          "type": "bool"
        },
        {
          "internalType": "bool",
          "name": "isOptional",
          "type": "bool"
        },
        {
          "internalType": "bool",
          "name": "isSelectableByUser",
          "type": "bool"
        }
      ],
      "name": "build",
      "outputs": [
        {
          "components": [
            {
              "internalType": "enum AuthType",
              "name": "authType",
              "type": "uint8"
            },
            {
              "internalType": "uint256",
              "name": "userId",
              "type": "uint256"
            },
            {
              "internalType": "bool",
              "name": "isAnon",
              "type": "bool"
            },
            {
              "internalType": "bool",
              "name": "isOptional",
              "type": "bool"
            },
            {
              "internalType": "bool",
              "name": "isSelectableByUser",
              "type": "bool"
            },
            {
              "internalType": "bytes",
              "name": "extraData",
              "type": "bytes"
            }
          ],
          "internalType": "struct AuthRequest",
          "name": "",
          "type": "tuple"
        }
      ],
      "stateMutability": "pure",
      "type": "function"
    },
    {
      "inputs": [
        {
          "internalType": "enum AuthType",
          "name": "authType",
          "type": "uint8"
        },
        {
          "internalType": "bool",
          "name": "isOptional",
          "type": "bool"
        },
        {
          "internalType": "bool",
          "name": "isSelectableByUser",
          "type": "bool"
        },
        {
          "internalType": "uint256",
          "name": "userId",
          "type": "uint256"
        }
      ],
      "name": "build",
      "outputs": [
        {
          "components": [
            {
              "internalType": "enum AuthType",
              "name": "authType",
              "type": "uint8"
            },
            {
              "internalType": "uint256",
              "name": "userId",
              "type": "uint256"
            },
            {
              "internalType": "bool",
              "name": "isAnon",
              "type": "bool"
            },
            {
              "internalType": "bool",
              "name": "isOptional",
              "type": "bool"
            },
            {
              "internalType": "bool",
              "name": "isSelectableByUser",
              "type": "bool"
            },
            {
              "internalType": "bytes",
              "name": "extraData",
              "type": "bytes"
            }
          ],
          "internalType": "struct AuthRequest",
          "name": "",
          "type": "tuple"
        }
      ],
      "stateMutability": "pure",
      "type": "function"
    },
    {
      "inputs": [
        {
          "internalType": "enum AuthType",
          "name": "authType",
          "type": "uint8"
        }
      ],
      "name": "build",
      "outputs": [
        {
          "components": [
            {
              "internalType": "enum AuthType",
              "name": "authType",
              "type": "uint8"
            },
            {
              "internalType": "uint256",
              "name": "userId",
              "type": "uint256"
            },
            {
              "internalType": "bool",
              "name": "isAnon",
              "type": "bool"
            },
            {
              "internalType": "bool",
              "name": "isOptional",
              "type": "bool"
            },
            {
              "internalType": "bool",
              "name": "isSelectableByUser",
              "type": "bool"
            },
            {
              "internalType": "bytes",
              "name": "extraData",
              "type": "bytes"
            }
          ],
          "internalType": "struct AuthRequest",
          "name": "",
          "type": "tuple"
        }
      ],
      "stateMutability": "pure",
      "type": "function"
    },
    {
      "inputs": [
        {
          "internalType": "enum AuthType",
          "name": "authType",
          "type": "uint8"
        },
        {
          "internalType": "uint256",
          "name": "userId",
          "type": "uint256"
        },
        {
          "internalType": "bool",
          "name": "isOptional",
          "type": "bool"
        }
      ],
      "name": "build",
      "outputs": [
        {
          "components": [
            {
              "internalType": "enum AuthType",
              "name": "authType",
              "type": "uint8"
            },
            {
              "internalType": "uint256",
              "name": "userId",
              "type": "uint256"
            },
            {
              "internalType": "bool",
              "name": "isAnon",
              "type": "bool"
            },
            {
              "internalType": "bool",
              "name": "isOptional",
              "type": "bool"
            },
            {
              "internalType": "bool",
              "name": "isSelectableByUser",
              "type": "bool"
            },
            {
              "internalType": "bytes",
              "name": "extraData",
              "type": "bytes"
            }
          ],
          "internalType": "struct AuthRequest",
          "name": "",
          "type": "tuple"
        }
      ],
      "stateMutability": "pure",
      "type": "function"
    },
    {
      "inputs": [
        {
          "internalType": "enum AuthType",
          "name": "authType",
          "type": "uint8"
        },
        {
          "internalType": "uint256",
          "name": "userId",
          "type": "uint256"
        }
      ],
      "name": "build",
      "outputs": [
        {
          "components": [
            {
              "internalType": "enum AuthType",
              "name": "authType",
              "type": "uint8"
            },
            {
              "internalType": "uint256",
              "name": "userId",
              "type": "uint256"
            },
            {
              "internalType": "bool",
              "name": "isAnon",
              "type": "bool"
            },
            {
              "internalType": "bool",
              "name": "isOptional",
              "type": "bool"
            },
            {
              "internalType": "bool",
              "name": "isSelectableByUser",
              "type": "bool"
            },
            {
              "internalType": "bytes",
              "name": "extraData",
              "type": "bytes"
            }
          ],
          "internalType": "struct AuthRequest",
          "name": "",
          "type": "tuple"
        }
      ],
      "stateMutability": "pure",
      "type": "function"
    },
    {
      "inputs": [
        {
          "internalType": "enum AuthType",
          "name": "authType",
          "type": "uint8"
        },
        {
          "internalType": "bytes",
          "name": "extraData",
          "type": "bytes"
        }
      ],
      "name": "build",
      "outputs": [
        {
          "components": [
            {
              "internalType": "enum AuthType",
              "name": "authType",
              "type": "uint8"
            },
            {
              "internalType": "uint256",
              "name": "userId",
              "type": "uint256"
            },
            {
              "internalType": "bool",
              "name": "isAnon",
              "type": "bool"
            },
            {
              "internalType": "bool",
              "name": "isOptional",
              "type": "bool"
            },
            {
              "internalType": "bool",
              "name": "isSelectableByUser",
              "type": "bool"
            },
            {
              "internalType": "bytes",
              "name": "extraData",
              "type": "bytes"
            }
          ],
          "internalType": "struct AuthRequest",
          "name": "",
          "type": "tuple"
        }
      ],
      "stateMutability": "pure",
      "type": "function"
    },
    {
      "inputs": [
        {
          "internalType": "enum AuthType",
          "name": "authType",
          "type": "uint8"
        },
        {
          "internalType": "bool",
          "name": "isAnon",
          "type": "bool"
        },
        {
          "internalType": "uint256",
          "name": "userId",
          "type": "uint256"
        }
      ],
      "name": "build",
      "outputs": [
        {
          "components": [
            {
              "internalType": "enum AuthType",
              "name": "authType",
              "type": "uint8"
            },
            {
              "internalType": "uint256",
              "name": "userId",
              "type": "uint256"
            },
            {
              "internalType": "bool",
              "name": "isAnon",
              "type": "bool"
            },
            {
              "internalType": "bool",
              "name": "isOptional",
              "type": "bool"
            },
            {
              "internalType": "bool",
              "name": "isSelectableByUser",
              "type": "bool"
            },
            {
              "internalType": "bytes",
              "name": "extraData",
              "type": "bytes"
            }
          ],
          "internalType": "struct AuthRequest",
          "name": "",
          "type": "tuple"
        }
      ],
      "stateMutability": "pure",
      "type": "function"
    },
    {
      "inputs": [
        {
          "internalType": "enum AuthType",
          "name": "authType",
          "type": "uint8"
        },
        {
          "internalType": "bool",
          "name": "isAnon",
          "type": "bool"
        },
        {
          "internalType": "uint256",
          "name": "userId",
          "type": "uint256"
        },
        {
          "internalType": "bool",
          "name": "isOptional",
          "type": "bool"
        }
      ],
      "name": "build",
      "outputs": [
        {
          "components": [
            {
              "internalType": "enum AuthType",
              "name": "authType",
              "type": "uint8"
            },
            {
              "internalType": "uint256",
              "name": "userId",
              "type": "uint256"
            },
            {
              "internalType": "bool",
              "name": "isAnon",
              "type": "bool"
            },
            {
              "internalType": "bool",
              "name": "isOptional",
              "type": "bool"
            },
            {
              "internalType": "bool",
              "name": "isSelectableByUser",
              "type": "bool"
            },
            {
              "internalType": "bytes",
              "name": "extraData",
              "type": "bytes"
            }
          ],
          "internalType": "struct AuthRequest",
          "name": "",
          "type": "tuple"
        }
      ],
      "stateMutability": "pure",
      "type": "function"
    },
    {
      "inputs": [
        {
          "internalType": "enum AuthType",
          "name": "authType",
          "type": "uint8"
        },
        {
          "internalType": "bool",
          "name": "isAnon",
          "type": "bool"
        },
        {
          "internalType": "uint256",
          "name": "userId",
          "type": "uint256"
        },
        {
          "internalType": "bool",
          "name": "isOptional",
          "type": "bool"
        },
        {
          "internalType": "bool",
          "name": "isSelectableByUser",
          "type": "bool"
        },
        {
          "internalType": "bytes",
          "name": "extraData",
          "type": "bytes"
        }
      ],
      "name": "build",
      "outputs": [
        {
          "components": [
            {
              "internalType": "enum AuthType",
              "name": "authType",
              "type": "uint8"
            },
            {
              "internalType": "uint256",
              "name": "userId",
              "type": "uint256"
            },
            {
              "internalType": "bool",
              "name": "isAnon",
              "type": "bool"
            },
            {
              "internalType": "bool",
              "name": "isOptional",
              "type": "bool"
            },
            {
              "internalType": "bool",
              "name": "isSelectableByUser",
              "type": "bool"
            },
            {
              "internalType": "bytes",
              "name": "extraData",
              "type": "bytes"
            }
          ],
          "internalType": "struct AuthRequest",
          "name": "",
          "type": "tuple"
        }
      ],
      "stateMutability": "pure",
      "type": "function"
    },
    {
      "inputs": [
        {
          "internalType": "enum AuthType",
          "name": "authType",
          "type": "uint8"
        },
        {
          "internalType": "uint256",
          "name": "userId",
          "type": "uint256"
        },
        {
          "internalType": "bytes",
          "name": "extraData",
          "type": "bytes"
        }
      ],
      "name": "build",
      "outputs": [
        {
          "components": [
            {
              "internalType": "enum AuthType",
              "name": "authType",
              "type": "uint8"
            },
            {
              "internalType": "uint256",
              "name": "userId",
              "type": "uint256"
            },
            {
              "internalType": "bool",
              "name": "isAnon",
              "type": "bool"
            },
            {
              "internalType": "bool",
              "name": "isOptional",
              "type": "bool"
            },
            {
              "internalType": "bool",
              "name": "isSelectableByUser",
              "type": "bool"
            },
            {
              "internalType": "bytes",
              "name": "extraData",
              "type": "bytes"
            }
          ],
          "internalType": "struct AuthRequest",
          "name": "",
          "type": "tuple"
        }
      ],
      "stateMutability": "pure",
      "type": "function"
    },
    {
      "inputs": [
        {
          "internalType": "enum AuthType",
          "name": "authType",
          "type": "uint8"
        },
        {
          "internalType": "bool",
          "name": "isAnon",
          "type": "bool"
        },
        {
          "internalType": "uint256",
          "name": "userId",
          "type": "uint256"
        },
        {
          "internalType": "bytes",
          "name": "extraData",
          "type": "bytes"
        }
      ],
      "name": "build",
      "outputs": [
        {
          "components": [
            {
              "internalType": "enum AuthType",
              "name": "authType",
              "type": "uint8"
            },
            {
              "internalType": "uint256",
              "name": "userId",
              "type": "uint256"
            },
            {
              "internalType": "bool",
              "name": "isAnon",
              "type": "bool"
            },
            {
              "internalType": "bool",
              "name": "isOptional",
              "type": "bool"
            },
            {
              "internalType": "bool",
              "name": "isSelectableByUser",
              "type": "bool"
            },
            {
              "internalType": "bytes",
              "name": "extraData",
              "type": "bytes"
            }
          ],
          "internalType": "struct AuthRequest",
          "name": "",
          "type": "tuple"
        }
      ],
      "stateMutability": "pure",
      "type": "function"
    },
    {
      "inputs": [
        {
          "internalType": "enum AuthType",
          "name": "authType",
          "type": "uint8"
        },
        {
          "internalType": "bool",
          "name": "isOptional",
          "type": "bool"
        },
        {
          "internalType": "bool",
          "name": "isSelectableByUser",
          "type": "bool"
        }
      ],
      "name": "build",
      "outputs": [
        {
          "components": [
            {
              "internalType": "enum AuthType",
              "name": "authType",
              "type": "uint8"
            },
            {
              "internalType": "uint256",
              "name": "userId",
              "type": "uint256"
            },
            {
              "internalType": "bool",
              "name": "isAnon",
              "type": "bool"
            },
            {
              "internalType": "bool",
              "name": "isOptional",
              "type": "bool"
            },
            {
              "internalType": "bool",
              "name": "isSelectableByUser",
              "type": "bool"
            },
            {
              "internalType": "bytes",
              "name": "extraData",
              "type": "bytes"
            }
          ],
          "internalType": "struct AuthRequest",
          "name": "",
          "type": "tuple"
        }
      ],
      "stateMutability": "pure",
      "type": "function"
    }
  ],
  "bytecode": {
    "object": "0x608060405234801561001057600080fd5b50610bc1806100206000396000f3fe608060405234801561001057600080fd5b50600436106101165760003560e01c8063498a992e116100a2578063916d93c711610071578063916d93c7146102295780639aa01be11461023c578063af4f63961461024f578063c355a32c14610262578063c3bcacd01461027557600080fd5b8063498a992e1461011b57806351559190146101f05780636746dd2c146102035780638b9dba711461021657600080fd5b80633049e4f1116100e95780633049e4f11461017e5780633a0ba6ff146101915780633ca1531a146101a4578063448324ea146101b757806345c13083146101cd57600080fd5b80631967e5101461011b5780631a88fb281461013857806320c9019914610158578063291884ae1461016b575b600080fd5b610123600081565b60405190151581526020015b60405180910390f35b61014b6101463660046106b7565b610288565b60405161012f9190610771565b61014b6101663660046107ee565b6102a6565b61014b610179366004610821565b6102d4565b61014b61018c366004610875565b610303565b61014b61019f3660046108c0565b610329565b61014b6101b23660046108db565b61034f565b6101bf600081565b60405190815260200161012f565b6101e36040518060200160405280600081525081565b60405161012f9190610917565b61014b6101fe36600461092a565b610374565b61014b610211366004610954565b61039a565b61014b6102243660046109a2565b6103b1565b61014b6102373660046109de565b6103d6565b61014b61024a366004610a20565b6103fa565b61014b61025d366004610aa8565b61041b565b61014b610270366004610ae9565b610432565b61014b610283366004610b51565b610448565b6102906105b3565b61029e84846000808661046e565b949350505050565b6102ae6105b3565b6102cb83836000806040518060200160405280600081525061046e565b90505b92915050565b6102dc6105b3565b6102fa85856000868660405180602001604052806000815250610497565b95945050505050565b61030b6105b3565b6102fa85600084878760405180602001604052806000815250610497565b6103316105b3565b6102ce8260008060006040518060200160405280600081525061046e565b6103576105b3565b61029e84600085856040518060200160405280600081525061046e565b61037c6105b3565b6102cb8360008460006040518060200160405280600081525061046e565b6103a26105b3565b6102cb8360008060008661046e565b6103b96105b3565b61029e84848460006040518060200160405280600081525061046e565b6103de6105b3565b6102fa858585856040518060200160405280600081525061046e565b6104026105b3565b610410878787878787610497565b979650505050505050565b6104236105b3565b61029e8460008560008661046e565b61043a6105b3565b6102fa85858560008661046e565b6104506105b3565b61029e84600080868660405180602001604052806000815250610497565b6104766105b3565b61048d868686866104878b8a610579565b87610497565b9695505050505050565b61049f6105b3565b60008760058111156104b3576104b3610715565b141580156104bf575084155b80156104c9575082155b156104e7576040516301972ecd60e11b815260040160405180910390fd5b60008760058111156104fb576104fb610715565b14801561050757508415155b8015610511575082155b1561052f57604051637fb1693d60e01b815260040160405180910390fd5b6040518060c0016040528088600581111561054c5761054c610715565b8152602081019690965295151560408601525091151560608401521515608083015260a090910152919050565b60008083600581111561058e5761058e610715565b0361059b575060006102ce565b816000036105ab575060016102ce565b5060006102ce565b6040805160c08101909152806000815260200160008152602001600015158152602001600015158152602001600015158152602001606081525090565b8035600681106105ff57600080fd5b919050565b803580151581146105ff57600080fd5b634e487b7160e01b600052604160045260246000fd5b600082601f83011261063b57600080fd5b813567ffffffffffffffff8082111561065657610656610614565b604051601f8301601f19908116603f0116810190828211818310171561067e5761067e610614565b8160405283815286602085880101111561069757600080fd5b836020870160208301376000602085830101528094505050505092915050565b6000806000606084860312156106cc57600080fd5b6106d5846105f0565b92506106e360208501610604565b9150604084013567ffffffffffffffff8111156106ff57600080fd5b61070b8682870161062a565b9150509250925092565b634e487b7160e01b600052602160045260246000fd5b6000815180845260005b8181101561075157602081850181015186830182015201610735565b506000602082860101526020601f19601f83011685010191505092915050565b60208152600082516006811061079757634e487b7160e01b600052602160045260246000fd5b806020840152506020830151604083015260408301511515606083015260608301516107c7608084018215159052565b50608083015180151560a08401525060a083015160c08084015261029e60e084018261072b565b6000806040838503121561080157600080fd5b61080a836105f0565b915061081860208401610604565b90509250929050565b6000806000806080858703121561083757600080fd5b610840856105f0565b935061084e60208601610604565b925061085c60408601610604565b915061086a60608601610604565b905092959194509250565b6000806000806080858703121561088b57600080fd5b610894856105f0565b93506108a260208601610604565b92506108b060408601610604565b9396929550929360600135925050565b6000602082840312156108d257600080fd5b6102cb826105f0565b6000806000606084860312156108f057600080fd5b6108f9846105f0565b92506020840135915061090e60408501610604565b90509250925092565b6020815260006102cb602083018461072b565b6000806040838503121561093d57600080fd5b610946836105f0565b946020939093013593505050565b6000806040838503121561096757600080fd5b610970836105f0565b9150602083013567ffffffffffffffff81111561098c57600080fd5b6109988582860161062a565b9150509250929050565b6000806000606084860312156109b757600080fd5b6109c0846105f0565b92506109ce60208501610604565b9150604084013590509250925092565b600080600080608085870312156109f457600080fd5b6109fd856105f0565b9350610a0b60208601610604565b92506040850135915061086a60608601610604565b60008060008060008060c08789031215610a3957600080fd5b610a42876105f0565b9550610a5060208801610604565b945060408701359350610a6560608801610604565b9250610a7360808801610604565b915060a087013567ffffffffffffffff811115610a8f57600080fd5b610a9b89828a0161062a565b9150509295509295509295565b600080600060608486031215610abd57600080fd5b610ac6846105f0565b925060208401359150604084013567ffffffffffffffff8111156106ff57600080fd5b60008060008060808587031215610aff57600080fd5b610b08856105f0565b9350610b1660208601610604565b925060408501359150606085013567ffffffffffffffff811115610b3957600080fd5b610b458782880161062a565b91505092959194509250565b600080600060608486031215610b6657600080fd5b610b6f846105f0565b9250610b7d60208501610604565b915061090e6040850161060456fea264697066735822122094529d5946672ae7994223452bec4a488eaafbc014dd66af6bbd4f526a01f64b64736f6c63430008130033",
    "linkReferences": {}
  },
  "methodIdentifiers": {
    "DEFAULT_AUTH_REQUEST_EXTRA_DATA()": "45c13083",
    "DEFAULT_AUTH_REQUEST_IS_ANON()": "1967e510",
    "DEFAULT_AUTH_REQUEST_IS_OPTIONAL()": "498a992e",
    "DEFAULT_AUTH_REQUEST_USER_ID()": "448324ea",
    "build(uint8)": "3a0ba6ff",
    "build(uint8,bool)": "20c90199",
    "build(uint8,bool,bool)": "c3bcacd0",
    "build(uint8,bool,bool,bool)": "291884ae",
    "build(uint8,bool,bool,uint256)": "3049e4f1",
    "build(uint8,bool,bytes)": "1a88fb28",
    "build(uint8,bool,uint256)": "8b9dba71",
    "build(uint8,bool,uint256,bool)": "916d93c7",
    "build(uint8,bool,uint256,bool,bool,bytes)": "9aa01be1",
    "build(uint8,bool,uint256,bytes)": "c355a32c",
    "build(uint8,bytes)": "6746dd2c",
    "build(uint8,uint256)": "51559190",
    "build(uint8,uint256,bool)": "3ca1531a",
    "build(uint8,uint256,bytes)": "af4f6396"
  },
  "id": 4
}